:040000004AEF00F0D3
:100008004782FACF0BF0FBCF0CF0E9CF0DF0EACF27
:100018000EF0E1CF0FF0E2CF10F0D9CF11F0DACF28
:1000280012F0F3CF13F0F4CF14F0F6CF15F0F7CFAA
:1000380016F0F8CF17F0F5CF18F09E926DEC13F08C
:100048000001FF05D8A404D02F04D8B454EC13F051
:1000580018C0F5FF17C0F8FF16C0F7FF15C0F6FF68
:1000680014C0F4FF13C0F3FF12C0DAFF11C0D9FFA8
:1000780010C0E2FF0FC0E1FF0EC0EAFF0DC0E9FFAC
:100088000CC0FBFF0BC0FAFF47921100E2EF0FF024
:100098004FC1CEF00001CF6B000E0001C16F000E02
:1000A800C06F010150510101846F836B01015151EF
:1000B800010183250001B86F0101000E01018421AF
:1000C8000001B96F2ED3080E0101326F000E010135
:1000D800866F240E856F85C133F1000E266E040EDF
:1000E800256E8BEC0FF01200F29E320E196E010E87
:1000F8001A6EDE0E1B6E000E1C6E000E1E6E020EB9
:100108001D6EEBEC10F0340E196E010E1A6EE00E37
:100118001B6E000E1C6E000E1E6E020E1D6EEBECAA
:1001280010F0360E196E010E1A6EE20E1B6E000EDE
:100138001C6E000E1E6E020E1D6EEBEC10F0380EDB
:10014800196E010E1A6EE40E1B6E000E1C6E000E68
:100158001E6E020E1D6EEBEC10F0F28E000E266E77
:100168000A0E256E8BEC0FF01200B0EC0AF0320E7E
:10017800196E010E1A6EE80E1B6E000E1C6E000E34
:100188001E6E070E1D6EEBEC10F0000E266E090EAB
:10019800256E8BEC0FF01200E80E196E000E1A6E29
:1001A800500E1B6E010E1C6E000E1E6E070E1D6E8D
:1001B800EBEC10F07CEC0BF0000E266E020E256EB8
:1001C8008BEC0FF0120036EC0CF0320E196E010EAB
:1001D8001A6E410E1B6E000E1C6E000E1E6E020E75
:1001E8001D6EEBEC10F0340E196E010E1A6E430EF4
:1001F8001B6E000E1C6E000E1E6E020E1D6EEBECCA
:1002080010F0000E266E060E256E8BEC0FF0120015
:10021800F9EC06F0320E196E010E1A6E410E1B6EC5
:10022800000E1C6E000E1E6E020E1D6EEBEC10F022
:10023800340E196E010E1A6E430E1B6E000E1C6EE4
:10024800000E1E6E020E1D6EEBEC10F0000E266EF8
:10025800060E256E8BEC0FF01200D30E196E000EF1
:100268001A6E500E1B6E010E1C6E000E1E6E060ED0
:100278001D6EEBEC10F047EC06F0320E196E010E15
:100288001A6ED10E1B6E000E1C6E000E1E6E080E2E
:100298001D6EEBEC10F03A0E196E010E1A6EE80E98
:1002A8001B6E000E1C6E000E1E6E060E1D6EEBEC15
:1002B80010F0400E196E010E1A6E410E1B6E000EE4
:1002C8001C6E000E1E6E020E1D6EEBEC10F0420E40
:1002D800196E010E1A6E430E1B6E000E1C6E000E78
:1002E8001E6E020E1D6EEBEC10F0000E266E140E44
:1002F800256E8BEC0FF01200FFEC12F03AEC13F0C5
:100308002FEC13F0FFEC12F0320E196E010E1A6E7C
:10031800D10E1B6E000E1C6E000E1E6E080E1D6E9A
:10032800EBEC10F03A0E196E010E1A6E410E1B6EB0
:10033800000E1C6E000E1E6E020E1D6EEBEC10F011
:100348003C0E196E010E1A6E430E1B6E000E1C6ECB
:10035800000E1E6E020E1D6EEBEC10F0000E266EE7
:100368000E0E256E8BEC0FF012005BEC13F0320EC4
:10037800196E010E1A6EEF0E1B6E000E1C6E000E2B
:100388001E6E030E1D6EEBEC10F0350E196E010E8D
:100398001A6E410E1B6E000E1C6E000E1E6E020EB3
:1003A8001D6EEBEC10F0370E196E010E1A6E430E2F
:1003B8001B6E000E1C6E000E1E6E020E1D6EEBEC08
:1003C80010F0000E266E090E256E8BEC0FF0120051
:1003D8002FEC13F0320E196E010E1A6E410E1B6EC1
:1003E800000E1C6E000E1E6E020E1D6EEBEC10F061
:1003F800340E196E010E1A6E430E1B6E000E1C6E23
:10040800000E1E6E020E1D6EEBEC10F0000E266E36
:10041800060E256E8BEC0FF012003AEC13F0320E3C
:10042800196E010E1A6E410E1B6E000E1C6E000E28
:100438001E6E020E1D6EEBEC10F0340E196E010EDE
:100448001A6E430E1B6E000E1C6E000E1E6E020E00
:100458001D6EEBEC10F0000E266E060E256E8BEC72
:100468000FF01200410E196E000E1A6E500E1B6E20
:10047800010E1C6E000E1E6E020E1D6EEBEC10F0CF
:10048800320E196E010E1A6E410E1B6E000E1C6E96
:10049800000E1E6E020E1D6EEBEC10F0340E196E7F
:1004A800010E1A6E430E1B6E000E1C6E000E1E6EA1
:1004B800020E1D6EEBEC10F0000E266E060E256E79
:1004C8008BEC0FF012003AEC13F0FFEC12F0320E46
:1004D800196E010E1A6ED10E1B6E000E1C6E000EE8
:1004E8001E6E080E1D6EEBEC10F03A0E196E010E22
:1004F8001A6E410E1B6E000E1C6E000E1E6E020E52
:100508001D6EEBEC10F03C0E196E010E1A6E430EC8
:100518001B6E000E1C6E000E1E6E020E1D6EEBECA6
:1005280010F0000E266E0E0E256E8BEC0FF01200EA
:10053800B8C029F0B9C02AF0320E2B6E010E2C6E0D
:10054800000E2E6E080E2D6E88EC05F0000E266E3D
:100558000A0E256E8BEC0FF01200B8C029F0B9C056
:100568002AF0520E2B6E010E2C6E000E2E6E010E0E
:100578002D6E39EC08F0000E266E020E256E8BECFF
:100588000FF01200000E0001CD6F000ECC6F320E7E
:10059800196E010E1A6EE80E1B6E000E1C6E000E10
:1005A8001E6E070E1D6EEBEC10F0000E266E090E87
:1005B800256E8BEC0FF01200320E196E010E1A6EBA
:1005C800D10E1B6E000E1C6E000E1E6E080E1D6EE8
:1005D800EBEC10F03A0E196E010E1A6EE80E1B6E57
:1005E800000E1C6E000E1E6E060E1D6EEBEC10F05B
:1005F800400E196E010E1A6E410E1B6E000E1C6E17
:10060800000E1E6E020E1D6EEBEC10F0420E196EFF
:10061800010E1A6E430E1B6E000E1C6E000E1E6E2F
:10062800020E1D6EEBEC10F0000E266E140E256EF9
:100638008BEC0FF01200000E0001CD6F010ECC6F95
:10064800000E266E020E256E8BEC0FF01200080EBF
:100658000001A627000EA723A6C029F0A7C02AF0EC
:10066800320E2B6E010E2C6E000E2E6E080E2D6EA5
:1006780088EC05F0000E266E0A0E256E8BEC0FF046
:100688001200E10E0101326F000E266E030E256E78
:100698008BEC0FF0000E0001C16F000EC06F12004E
:1006A800F29E320E196E010E1A6E330E1B6E000E7C
:1006B8001C6E000E1E6E020E1D6EEBEC10F0340E5A
:1006C800196E010E1A6E350E1B6E000E1C6E000E92
:1006D8001E6E020E1D6EEBEC10F0360E196E010E3A
:1006E8001A6E370E1B6E000E1C6E000E1E6E020E6A
:1006F8001D6EEBEC10F0380E196E010E1A6E390EE5
:100708001B6E000E1C6E000E1E6E020E1D6EEBECB4
:1007180010F0F28E000E266E0A0E256E8BEC0FF08E
:100728001200AAC083F1ABC084F101018451000A10
:10073800D8A4A7D701018351000AD8B4C4D4010AA8
:10074800D8B4D2D4020AD8B410D5070AD8B424D55C
:10075800010AD8B438D5030AD8B45AD5010AD8B48E
:100768007CD50F0AD8B4C8D5010AD8B4FED5030A77
:10077800D8B42ED6010AD8B450D6070AD8B472D63F
:10078800010AD8B4A0D6030AD8B4D2D6010AD8B47C
:10079800E4D61F0AD8B4F6D6010AD8B40DD7020A8F
:1007A800D8B449D7320AD8B452D7030AD8B478D7BC
:1007B80068D75B0E0101796F0F0E7A6F000E7B6FA1
:1007C800000E7C6FC7EC12F033C019F034C01AF079
:1007D800000E1ABEFF0E1B6E1C6E79C11DF07AC189
:1007E8001EF07BC11FF07CC120F0B7EC0FF019C0E0
:1007F80025F01AC026F01BC027F01CC028F0E80E10
:10080800296E030E2A6E000E2B6E000E2C6E3EEC27
:100818000AF025C033F026C034F020EE35F0DECFE4
:1008280019F0DDCF1AF0000E1ABEFF0E1B6E1C6EFB
:1008380079C11DF07AC11EF07BC11FF07CC120F088
:10084800B7EC0FF019C025F01AC026F01BC027F02E
:100858001CC028F0E80E296E030E2A6E000E2B6EBF
:10086800000E2C6E3EEC0AF025C035F026C036F09E
:1008780020EE37F0DECF19F0DDCF1AF0000E1ABEE9
:10088800FF0E1B6E1C6E79C11DF07AC11EF07BC174
:100898001FF07CC120F0B7EC0FF019C025F01AC08A
:1008A80026F01BC027F01CC028F0E80E296E030EA6
:1008B8002A6E000E2B6E000E2C6E3EEC0AF025C040
:1008C80037F026C038F020EE39F0DECF19F0DDCF52
:1008D8001AF0000E1ABEFF0E1B6E1C6E79C11DF0B9
:1008E8007AC11EF07BC11FF07CC120F0B7EC0FF07D
:1008F80019C025F01AC026F01BC027F01CC028F02C
:10090800E80E296E030E2A6E000E2B6E000E2C6E5A
:100918003EEC0AF025C039F026C03AF034BE07D0C4
:10092800100E345CD8A003D00F0E346E336836BE78
:1009380007D0100E365CD8A003D00F0E366E35687F
:1009480038BE07D0100E385CD8A003D00F0E386E12
:1009580037683ABE1200100E3A5CD8A012000F0E8B
:100968003A6E396812000001CC510001CD11D8B49B
:10097800120000019A5100019B11D8B41200000E18
:1009880000019B6F000E9A6F0001844B852B0001BC
:10099800FD510001845D0001FE5100018559D8B068
:1009A80097D00001FB510001845D0001FC5100015A
:1009B8008559D8A01200DDEC03F074C083F175C02E
:1009C80084F10101831F841F834B842B3350010161
:1009D8008325196E3450010184211A6E78EC12F0C7
:1009E80000016051195C1A50800A0101856F0001ED
:1009F8006151800A01018559D8B06CD020EE76F09B
:100A0800DECF83F1DDCF84F10101831F841F834B87
:100A1800842B355001018325196E3650010184213C
:100A28001A6E78EC12F000016251195C1A50800AB3
:100A38000101856F00016351800A01018559D8B011
:100A480049D020EE78F0DECF83F1DDCF84F10101CB
:100A5800831F841F834B842B375001018325196E14
:100A68003850010184211A6E78EC12F000016451AB
:100A7800195C1A50800A0101856F00016551800ACE
:100A880001018559D8B026D020EE7AF0DECF83F167
:100A9800DDCF84F10101831F841F834B842B3950E0
:100AA80001018325196E3A50010184211A6E78ECF0
:100AB80012F000016651195C1A50800A0101856F15
:100AC80000016751800A01018559D8A0120002D09F
:100AD800DDEC03F0DBEC0BF047EC06F0000E000158
:100AE800856F000E846F33C074F034C075F035C064
:100AF80076F036C077F037C078F038C079F039C072
:100B08007AF03AC07BF01200000E0001A96F000EC7
:100B1800A86F000E0101796F000E7A6F000E7B6FCF
:100B2800000E7C6F0FD0EFEC11F0000E266EA00EB9
:100B3800256EE8EC0CF0010E01017927000E7A23EE
:100B48007B237C2301017CBF0ED001017C5111E184
:100B5800A00E0101795D860E01017A59010E01018D
:100B68007B59D8B006D00001A8510001A911D8B40A
:100B7800DAD729C0F5F02AC0F6F0F6C0F5F0000182
:100B8800F66B0001F551256E266AE8EC0CF0295049
:100B9800256E266AE8EC0CF0EFEC11F0000E266EDC
:100BA800A10E256EE8EC0CF0000E0101796F000E25
:100BB8007A6F000E7B6F000E7C6F15D001017951A2
:100BC8002B24D96E01017A512C20DA6EB9EC0DF084
:100BD8001950DF6E4AEC11F0010E01017927000E61
:100BE8007A237B237C23FF0E2D240001F56FFF0E53
:100BF8002E200001F66F0001F76B0001F6BFF70722
:100C08000001F7510001F86F0001F5510101795D0C
:100C18000001F65101017A590001F75101017B5990
:100C280001017C51800A0001F96F0001F851800A26
:100C38000001F959D8A0C2D7FF0E0001F56FFF0EC9
:100C48000001F66F2DC0F7F02EC0F8F00001F55145
:100C58000001F7270001F6510001F8230001F751C0
:100C68002B24D96E0001F8512C20DA6EB9EC0DF066
:100C78001950DF6EBCEC11F08CEC12F029C0A6F014
:100C88002AC0A7F01200B0EC0AF0C8EC08F043C084
:100C980019F044C01AF0EDEC12F019C043F01AC074
:100CA80044F043C019F044C01AF0EDEC12F019C03A
:100CB80081F11AC082F10001EF513D180DE10001E8
:100CC800F0513E1809E10001F1513F1805E100011A
:100CD800F2514018D8B432D0A2EC11F081C17DF1A4
:100CE80082C17EF16C0E01017F6F010E0101806FE0
:100CF80063EC12F099EC0EF043C07DF144C07EF134
:100D08006C0E01017F6F010E0101806F63EC12F020
:100D180081C143F082C144F043C019F044C01AF0C5
:100D2800EDEC12F019C081F11AC082F13DC0EFF06C
:100D38003EC0F0F03FC0F1F040C0F2F04350441024
:100D4800D8A42AD0A2EC11F081C17DF182C17EF134
:100D58006C0E01017F6F010E0101806F63EC12F0D0
:100D680099EC0EF043C07DF144C07EF16C0E010198
:100D78007F6F010E0101806F63EC12F081C143F0B7
:100D880082C144F043C019F044C01AF0EDEC12F0EF
:100D980019C081F11AC082F1A2EC11F081C17DF174
:100DA80082C17EF16C0E01017F6F010E0101806F1F
:100DB80063EC12F0D10E196E000E1A6EF30E1B6E54
:100DC800000E1C6E000E1E6E020E1D6EEBEC10F077
:100DD80043C07DF144C07EF1D10E01017F6F000E4A
:100DE8000101806F63EC12F0120064EC0EF0000E4B
:100DF8000001EF6F000EF06F000EF16F000EF26F42
:100E08004680000E0001A56F040EA46F000E426E0E
:100E1800000E416E42BE06D0E80E415C030E4258F9
:100E2800D8B023D0FFEC12F00001D129D8A407D004
:100E3800FF0E4124436EFF0E4220446E16D0FE0E74
:100E48000001D119D8A40ED0EF0E196E000E1A6E3B
:100E5800D20E1B6E000E1C6E000E1E6E030E1D6E53
:100E6800EBEC10F0414A422AD5D741504210D8A4A1
:100E780012D0030E426EE70E416EFFEC12F0000135
:100E8800D129D8A404D0030E446EE60E03D0030E75
:100E9800446EE70E436E42BE19D0E80E415C030E65
:100EA8004258D8A013D0A2EC11F0030E01017E6FB6
:100EB800E70E7D6F6C0E01017F6F010E0101806FDF
:100EC80063EC12F0030E446EE60E436E0001EF5120
:100ED8000001F0110001F1110001F211D8A424D091
:100EE800030E426EE70E416E42BE1ED0FFEC12F0BA
:100EF8000001D129D8B418D0FE0E0001D119D8A408
:100F08000FD0EF0E196E000E1A6ED20E1B6E000E69
:100F18001C6E000E1E6E030E1D6EEBEC10F004D05E
:100F28004106D8A04206E0D743C041F044C042F091
:100F380012004FC1AAF00001AB6B820E0101306FA5
:100F4800AAC031F10001AB5105E1800E0001AA5D94
:100F5800D8A088D0010150510101886F876B010129
:100F68005151010187250001B86F0101000E0101EF
:100F780088210001B96F64D0000E01018B6F000E4B
:100F88008A6F01018B512BE1080E01018A5DD8B0EF
:100F980026D001018A510001B825236E01018B5129
:100FA8000001B921246EA0EC12F00101876F020E36
:100FB80001018A250101886F000E01018B210101C1
:100FC800896F300E01018825D96E010E0101892132
:100FD800DA6E87C1DFFF01018A4B8B2BD2D7000E57
:100FE800266E0A0E256E8BEC0FF0000E0001C16F05
:100FF800000EC06F1200B8C023F0B9C024F0520E22
:10100800256E010E266EDAEC12F0000E266E020E28
:10101800256E8BEC0FF0000E0001C16F000EC06F43
:101028001200E00E0101326F000E266E030E256ECF
:101038008BEC0FF0000E0001C16F000EC06F1200A4
:10104800AAC087F1ABC088F101018851000AD8A471
:10105800E8D701018751800AD8B48ED7010AD8B4DD
:10106800CAD7DFD74CEC00F01200000E0001A96FC0
:10107800000EA86F000E0101796F000E7A6F000E46
:101088007B6F000E7C6F0FD0EFEC11F0000E266E18
:10109800A00E256EE8EC0CF0010E01017927000E78
:1010A8007A237B237C2301017CBF0ED001017C5174
:1010B80011E1A00E0101795D860E01017A59010E38
:1010C80001017B59D8B006D00001A8510001A9112F
:1010D800D8B4DAD729C0F5F02AC0F6F0F6C0F5F092
:1010E8000001F66B0001F551256E266AE8EC0CF05C
:1010F8002950256E266AE8EC0CF0000E0101796F84
:10110800000E7A6F000E7B6F000E7C6F18D0010105
:1011180079512B24D96E01017A512C20DA6EDF50D7
:101128000001F56F0001F551256E266AE8EC0CF018
:10113800010E01017927000E7A237B237C232DC021
:10114800F5F02EC0F6F0000E0001F6BFFF0EF76FA7
:10115800F86F0001F5510101795D0001F6510101B7
:101168007A590001F75101017B5901017C51800A2C
:101178000001F96F0001F851800A0001F959D8A05F
:10118800C6D78CEC12F01200EBC019F01F0E19161E
:1011980019500001F36FF46B0001F4510AE10C0ED1
:1011A8000001F35DD8B005D0000E266E000E256E46
:1011B80009D0000E266E010E256E0C0E0001F35F9D
:1011C800000EF45B0001E8513D6E3E6A3F6A406ADA
:1011D8000001E9513DC01AF03EC01BF03FC01CF0B1
:1011E800196A19243D6E000E1A203E6E000E1B204F
:1011F8003F6E000E1C20406ED8900001EA35196E33
:101208001A6A1A361B6A1ABE1B061B501C6E3DC092
:101218001EF03EC01FF03FC020F01D6A19501D246B
:10122800216E1A501E20226E1B501F20236E1C5048
:101238002020246E255021243D6E265022203E6E0B
:10124800000E23203F6E000E2420406EF3C019F0DC
:10125800F4C01AF0060ED89019361A36E82EFBD7C5
:101268000001EC511926000E1A22060ED8901936E4
:101278001A36E82EFBD70001ED5119240001F36F4F
:101288000001000E1A200001F46F12009EAA12003D
:1012980072EC13F0326E0001C0510001C111D8A4E4
:1012A80012000001C62913E10001C729D8A40FD0F4
:1012B800FE0E3218D8A41200000E0001C76F000EEF
:1012C800C66F000E0001BF6F000EBE6F12003228FD
:1012D800D8B443D0FE0E3218D8A40BD0000E0001AB
:1012E800C76F000EC66F000E0001BF6F000EBE6F05
:1012F8001200FA0E3218D8A406D0000E0001BF6FF3
:10130800010EBE6F12000001BE510001BF11D8B41A
:1013180007D0FA0E3226000E0001BF6F000EBE6F16
:101328000001C7BF0CD00001C75105E11E0E000126
:10133800C65DD8A004D00001C669C76912004E0E68
:101348000001C625D96E010E0001C721DA6E32C030
:10135800DFFF0001C64BC72B1200020E01014E1918
:10136800D8A41200FF0E0001C6250001CA6FFF0EA7
:101378000001C7210001CB6F000E0001C16F010EF3
:10138800C06F120092682F0E0F015B6F000E0001F4
:10139800616F030E606F000E0001636F030E626FD2
:1013A800000E0001656F030E646F000E0001676F89
:1013B800030E666F000E0001696F030E686F000E62
:1013C8000101156F010E146F000E0101176F010E58
:1013D800166F000E0101196F010E186F000E010142
:1013E8001B6F010E1A6F000E01011D6F010E1C6F9D
:1013F800000E00016B6F000E6A6F000E00016D6F2A
:10140800000E6C6F000E00016F6F000E6E6F000E05
:101418000001716F000E706F000E0001736F000EF7
:10142800726F000E0001D16F000E0001D26F000E26
:101438000001D36F000E0001D46F000E0001D56FBC
:10144800000E0001756F7469000E0001776F7669F0
:10145800000E0001796F7869000E00017B6F7A69D0
:10146800000E00017D6F7C69000E0001CD6F010E3A
:10147800CC6F1200000E0001F66F2CAE0BD02C1EA4
:101488002B1E2A1E296C000E2A222B222C22010E2A
:101498000001F66F28AE0BD0281E271E261E256CCD
:1014A800000E262227222822010E0001F61B000E1C
:1014B8000001F76F000EF86F000EF96F000EFA6F5B
:1014C80029502A102B102C10D8B42FD0010E00014F
:1014D800F56F07D0D89029362A362B362C360001DE
:1014E800F52B2CAEF7D70001D890F737F837F93736
:1014F800FA372950255C2A5026582B5027582C504B
:101508002858D8A00AD02950255E2A50265A2B5090
:10151800275A2C50285A0001F781D8902C322B32A8
:101528002A3229320001F52FDED70001F6510001D9
:10153800D8B409D00001FA1FF91FF81FF76D000E83
:10154800F823F923FA23F7C025F0F8C026F0F9C0EC
:1015580027F0FAC028F01200EFEC11F0000E266E0A
:10156800D00E256EE8EC0CF0000E266E000E256EEF
:10157800E8EC0CF0EFEC11F0000E266ED10E256EA3
:10158800E8EC0CF0B9EC0DF01950296E29BE06D024
:1015980029500CEC13F00001ED6F02D029C0EDF0DA
:1015A8004AEC11F0B9EC0DF01950296E29500CECE9
:1015B80013F00001EC6F4AEC11F0B9EC0DF0195082
:1015C800296E29500CEC13F00001EB6F4AEC11F076
:1015D800B9EC0DF01950296E29500CEC13F00001EC
:1015E800EE6F4AEC11F0B9EC0DF01950296E295044
:1015F8000CEC13F00001EA6F4AEC11F0B9EC0DF0B5
:101608001950296E29500CEC13F00001E96F4AECCF
:1016180011F0B9EC0DF01950296E29500CEC13F0AB
:101628000001E86FBCEC11F08CEC12F01200000124
:101638009C5100019D11D8B41200B0EC0AF00001D1
:10164800ED512A6E2B6A000192512A1805E100011A
:1016580093512B18D8B41200000E00019B6F010E95
:101668009A6FEDC092F00001936B0001EC512A6E65
:101678002B6A000190512A1805E1000191512B189D
:10168800D8B41200000E0001996F010E986FECC0DB
:1016980090F00001916B0001EB512A6E2B6A00015A
:1016A8008E512A1805E100018F512B18D8B4120069
:1016B800000E0001976F010E966FEBC08EF00001CF
:1016C8008F6B0001EA512A6E2B6A00018C512A188F
:1016D80005E100018D512B18D8B41200000E00014D
:1016E800956F010E946FEAC08CF000018D6B1200AB
:1016F800EFEC11F0000E266ED00E256EE8EC0CF023
:10170800000E266E000E256EE8EC0CF00001ED517F
:1017180085EC11F0296E7F0E29162950256E266A50
:10172800E8EC0CF00001EC5185EC11F0296E295021
:10173800256E266AE8EC0CF00001EB5185EC11F0FF
:10174800296E2950256E266AE8EC0CF00001EE514E
:1017580085EC11F0296E2950256E266AE8EC0CF00C
:101768000001EA5185EC11F0296E2950256E266A90
:10177800E8EC0CF00001E95185EC11F0296E2950D4
:10178800256E266AE8EC0CF00001E85185EC11F0B2
:10179800296E2950256E266AE8EC0CF0000E266E9C
:1017A800000E256EE8EC0CF08CEC12F0120033C041
:1017B80019F034C01AF0040E1B6E1A341A3219329A
:1017C8001B2EFBD719500001D36F20EE35F0DECF6A
:1017D80019F0DDCF1AF0040E1B6E1A341A321932C2
:1017E8001B2EFBD719500001D46F20EE37F0DECF47
:1017F80019F0DDCF1AF0040E1B6E1A341A321932A2
:101808001B2EFBD719500001D56F20EE39F0DECF23
:1018180019F0DDCF1AF0040E1B6E1A341A32193281
:101828001B2EFBD719500001D66F35C019F00F0ECB
:10183800191633C01AF00F0E1A161A38F00B19249D
:10184800F00B0001D76F39C019F00F0E191637C009
:101858001AF00F0E1A161A38F00B1924F00B0001A3
:10186800D86F120064EC0EF04680000E0001A56FE0
:10187800040EA46FA2EC11F0030E01017E6FE70EB7
:101888007D6F6C0E01017F6F010E0101806F63ECAB
:1018980012F0000E01017E6F010E7D6F6C0E0101CA
:1018A8007F6F010E0101806F63EC12F0000E3D6E38
:1018B800000E3E6E000E3F6E000E406EB0EC0AF059
:1018C800C8EC08F0000E0001EF6F000EF06F000E7C
:1018D800F16F000EF26F99EC0EF0000E01017E6FB1
:1018E800000E7D6F6C0E01017F6F010E0101806F8C
:1018F80063EC12F03DC0EFF03EC0F0F03FC0F1F0F5
:1019080040C0F2F0000E446E000E436E000E426EB0
:10191800000E416E12000001BC510001BD11D8B487
:1019280012009EA812000001C5AF07D0FE0E69EC98
:1019380013F00001C44BC52B12000001C451000173
:10194800C85D0001C951800A026E0001C551800AB4
:101958000258D8A030D0300E0001C425D96E010E2F
:101968000001C521DA6EDF50316EF90E31641CD0EA
:101978000001BA510001BB11D8A409D0FA0E69ECD4
:1019880013F0000E0001BB6F010EBA6F1200315048
:10199800060F69EC13F0000E0001BB6F000EBA6F62
:1019A8000001C44BC52B1200315069EC13F0000143
:1019B800C44BC52B1200FF0E69EC13F0000E00019A
:1019C800BD6F000EBC6F12009392000E286E010EC0
:1019D800276E28BE06D0285027E1090E275CD8B00C
:1019E80023D025BE02D0939001D09380D89025347F
:1019F800256E2634266E0C0EE82EFED700D0938274
:101A08000C0EE82EFED700D00C0EE82EFED700D024
:101A180093920C0EE82EFED700D0274A282A28BE1B
:101A2800E0D7285001E1D9D793800C0EE82EFED7D5
:101A380000D093820C0EE82EFED700D081B005D0DE
:101A4800000E0001A96F010E04D0000E0001A96F5D
:101A5800000EA86F0C0EE82EFED700D093920C0E45
:101A6800E82EFED700D01200000E1E6E1CAE06D067
:101A78001B6C1C1ED8B01C2A010E1E6E1AAE06D096
:101A8800196C1A1ED8B01A2A010E1E1A000E206EE2
:101A9800000E1F6E1B501C10D8B41CD0010E1D6EFA
:101AA80004D0D8901B361C361D2A1CAEFAD7D89005
:101AB8001F3620361B50195C1C501A58D8A005D068
:101AC8001B50195E1C501A5A1F80D8901C321B32AA
:101AD8001D2EEDD71E50D8B404D01F6C201ED8B0D0
:101AE800202A1FC019F020C01AF0120020C019F0D7
:101AF80021C01AF0A4C01BF0A5C01CF00CEC10F01B
:101B080019C0A2F01AC0A3F020C019F021C01AF021
:101B1800A4C01BF0A5C01CF0CAEC10F019C0A0F0BE
:101B28001AC0A1F0A0C022F0A1C023F0D89022369C
:101B38002336D89022362336D89022362336A2C0B0
:101B480024F0A3C025F0050ED89024362536E82EBB
:101B5800FBD7225024262350252224C07EF025C0FE
:101B68007FF00001806B816B1200939293800C0EC2
:101B7800E82EFED700D0000E1E6E000E1D6E000E61
:101B88001C6E010E1B6E1CBE06D01C5022E1090EF5
:101B98001B5CD8B01ED0D8901D341D6E1E341E6E2E
:101BA80093820C0EE82EFED700D00C0EE82EFED73E
:101BB80000D081A002D01D4A1E2A93920C0EE82E56
:101BC800FED700D01B4A1C2A1CBEE5D71C5001E1D9
:101BD800DED793800C0EE82EFED700D01DC019F07A
:101BE8001EC01AF01200000E1E6E1AAE06D0196C36
:101BF8001A1ED8B01A2A010E1E6E1CAE04D01B6C19
:101C08001C1ED8B01C2A1B501C10D8B418D0010EAA
:101C18001D6E04D0D8901B361C361D2A1CAEFAD770
:101C28001B50195C1C501A58D8A004D01B50195EC0
:101C38001C501A5AD8901C321B321D2EF1D71E5038
:101C4800D8B404D0196C1A1ED8B01A2A19C019F0C1
:101C58001AC01AF01200000E1A6E640E196ED6EC35
:101C680011F0020E0101306F680E0101316F700E24
:101C78000101326F6A0E0101336F6E0E0101346F7C
:101C8800000E266E030E256E8BEC0FF0050E1A6EF5
:101C9800DC0E196ED6EC11F0CEEC0EF024EC13F03D
:101CA80019EC13F02BEC11F064EC0EF0F9EC06F0E3
:101CB800C6EC09F0000E0001836F000E826F12005F
:101CC8004690000E0001EF6F000EF06F000EF16FEE
:101CD800000EF26F000E1A6E000E196E1A5017E100
:101CE800080E195CD8B013D0D10E1924D96E000E85
:101CF8001A20DA6E000EDF6E6C0E1924D96E010EF2
:101D08001A20DA6E010EDF6E194A1A2AE7D7000E7A
:101D18000001A56F040EA46F000E446E000E436E02
:101D2800000E426E000E416E1200000E246E010E6F
:101D3800236E24500FE1080E235CD8B00BD06C0E34
:101D48002324D96E010E2420DA6EF10EDF6E234AA9
:101D5800242AEFD7FE0E01016C6F6D0E196E010E6D
:101D68001A6E3D0E1B6E000E1C6E000E1E6E030ECC
:101D78001D6EEBEC10F0700E196E010E1A6EEF0E60
:101D88001B6E000E1C6E000E1E6E030E1D6EEBEC1D
:101D980010F01200000E00019F6F000E9E6F000EE3
:101DA80000019D6F000E9C6F000E00019B6F000EDE
:101DB8009A6F000E0001996F000E986F000E0001D7
:101DC800976F000E966F000E0001956F000E946FCE
:101DD800B0EC0AF0EDC092F00001936BECC090F00B
:101DE8000001916BEBC08EF000018F6BEAC08CF0A4
:101DF80000018D6B1200000E206E000E1F6E000E8B
:101E0800226E000E216E17D021501B24D96E22504D
:101E18001C20DA6EDF501D6E1D50236E246A23AE1F
:101E280002D0234A242A23501F241F6E2450202026
:101E3800206E214A222A1950215C2250800A1D6EE8
:101E48001A50800A1D58D8A0DFD71F5000087F0BF2
:101E58001E6E1E501200F29E8290030E1A6EE80E3D
:101E6800196ED6EC11F0000E226E010E216E10D004
:101E78008280010E1A6E900E196ED6EC11F08290C7
:101E8800010E1A6E900E196ED6EC11F0214A222A14
:101E980021501E5C1F50800A206E2250800A205854
:101EA800D8B0E6D7010E1A6EF40E196ED6EC11F002
:101EB800DAD7F29E8290030E026EE80E016E08ECED
:101EC80012F0000E0A6E010E096E10D08280010E0B
:101ED800026E900E016E08EC12F08290010E026EF6
:101EE800900E016E08EC12F0094A0A2A0950065CA5
:101EF8000750800A086E0A50800A0858D8B0E6D7FA
:101F0800010E026EF40E016E08EC12F0DAD7000131
:101F1800BC510001BD11D8A4120025C028F026C06C
:101F280029F025C019F026C01AF0300E1B6E010EDC
:101F38001C6EFFEC0EF0276E300E2824D96E010EB1
:101F48002920DA6E27C0DFFFFF0E0001C56FFE0EE5
:101F5800C46F25C0C8F026C0C9F0000E0001BD6FCF
:101F6800010EBC6F1200000E216E000E226E000ED4
:101F7800236E000E246E19A008D01D5021261E5075
:101F880022221F50232220502422D8901D361E368C
:101F98001F362036D8901C321B321A32193219508B
:101FA8001A101B101C10D8A4E6D721C019F022C0A3
:101FB8001AF023C01BF024C01CF01200E00EF66ECD
:101FC800260EF76E000EF86E00EEFBF010EE04F031
:101FD8000900F5CFEEFFE550E150FAE101EE00F01F
:101FE800790EEE6AE806FDE100EE60F0950EEE6A05
:101FF800E806FDE1466A00EE2FF0170EEE6AE806E5
:10200800FDE147904792000EF86E000165EF13F06E
:10201800000E1F6E000E1E6E1B501C10D8B41CD074
:10202800010E1D6E04D0D8901B361C361D2A1CAE1E
:10203800FAD7D8901E361F361B50195C1C501A58F8
:10204800D8A005D01B50195E1C501A5A1E80D89073
:102058001C321B321D2EEDD71EC019F01FC01AF0FE
:102068001200000E026E000E016E5EEC10F001C050
:10207800DEF002C0DFF0000E026E010E016E5EECB3
:1020880010F001C0E0F002C0E1F0000E026E020E96
:10209800016E5EEC10F001C0E2F002C0E3F0000E49
:1020A800026E040E016E5EEC10F001C0E4F002C096
:1020B800E5F0120001C003F0D8900336D89003363B
:1020C8000328C26E00D000D000D0C282000E066E77
:1020D800000E056E06BE06D0065009E13D0E055CF1
:1020E800D8B005D0C2A203D0054A062AF3D7C450F7
:1020F800046E036AC3500324016E000E0420026EAE
:102108001200000E816E000E936E000E0F015B6FC1
:10211800000E0F015C6F000E0F015D6F620ED36E33
:102128007C0EBB6E060EBA6E9D82C00EF26E4DEC32
:1021380013F0800E1D6E250E1E6E000E1F6E000E13
:10214800206E68EC11F01200010E0001FF6F000E06
:102158002F6E85EC10F00001FF05D8A407D02F5092
:10216800D8A404D02FEC0EF0010E2F6E44EC13F01F
:102178000001FF05D8A4FAD72F50D8A404D02FEC1B
:102188000EF0010E2F6EB4EC12F0F0D71B501C109D
:10219800D8B418D0010E1D6E04D0D8901B361C364A
:1021A8001D2A1CAEFAD71B50195C1C501A58D8A00F
:1021B80004D01B50195E1C501A5AD8901C321B327E
:1021C8001D2EF1D719C019F01AC01AF012001BC041
:1021D80021F01CC022F019C01FF01AC020F00ED048
:1021E80021C0D9FF22C0DAFF1FC0E1FF20C0E2FFF3
:1021F800DFCFE7FF214A222A1F4A202A1D06D8A03E
:102208001E061D28EDE11E28D8B41200E9D70101E9
:102218009107D8A09207010192BF08D001019251FD
:1022280015E1020E0101915DD8B0120082A007D01D
:102238008290000E0101926F640E916F12008280ED
:10224800000E0101926F640E916F12001200B0EC43
:102258000AF0B0EC0AF00001EDAF12000B0E00011D
:10226800E86F050E0001E96F0A0E0001EA6F010E22
:102278000001EB6F020E0001EC6F030E0001ED6F21
:10228800010E0001EE6F7CEC0BF0120093920C0E25
:10229800E82EFED700D093900C0EE82EFED700D083
:1022A80093820C0EE82EFED700D00C0EE82EFED737
:1022B80000D093920C0EE82EFED700D093800C0E1F
:1022C800E82EFED700D012001DC019F01EC01AF06B
:1022D8001FC01BF020C01CF021EC12F0000E000102
:1022E800BF6F000EBE6F000E0001BB6F000EBA6F0D
:1022F800000E0001C16F000EC06F0001C669C769FA
:102308001200246E24C019F01A6A000E1C6E0A0E00
:102318001B6EF7EC0DF019C021F01AC022F024C092
:1023280019F01A6A000E1C6E0A0E1B6E38EC0DF0BE
:102338001938F00B2124236E23501200000E1A6E58
:10234800010E196E1A5011E1080E195CD8B00DD0A3
:102358006C0E1924D96E010E1A20DA6EF00EDF6E9B
:10236800194A1A2A1A5001E1EFD701016C691200C3
:1023780093920C0EE82EFED700D093800C0EE82E18
:10238800FED700D093820C0EE82EFED700D00C0E9C
:10239800E82EFED700D093920C0EE82EFED700D080
:1023A80093801200000E1D6E010E1C6E09D0030EE4
:1023B8001B6E980EE82EFED71B2EFCD71C4A1D2A32
:1023C8001C50195C1A50800A1B6E1D50800A1B583D
:1023D800D8A01200ECD7938093820C0EE82EFED77B
:1023E80000D00C0EE82EFED700D093900C0EE82EED
:1023F800FED700D00C0EE82EFED700D093920C0E1C
:10240800E82EFED700D01200000E056E010E046EF5
:1024180009D0030E036E980EE82EFED7032EFCD7C4
:10242800044A052A0450015C0250800A036E0550D4
:10243800800A0358D8A01200ECD7CF0EAF6E000E5A
:10244800B06EC20E1A1807E11B0419101C10D8A48C
:1024580002D0100EAF6E0A0EB86E900EAB6E240E40
:10246800AC6E9E9A9E88120000019E4B9F2B000125
:102478009F5105E1320E00019E5DD8A01200000EAA
:1024880000019F6F000E9E6F000E00019D6F010EF0
:102498009C6F12007DC120F07EC121F07AEC0DF016
:1024A8007EC029F07FC02AF07FC12BF080C12CF0BC
:1024B800000E2E6E080E2D6E88EC05F012007DC100
:1024C80020F07EC121F07AEC0DF07EC029F07FC0AB
:1024D8002AF07FC12BF080C12CF0000E2E6E080E62
:1024E8002D6E39EC08F012001AAE0DD019C01BF091
:1024F8001AC01CF01B1E1C1E1B4A1C2A1BC019F0EC
:102508001CC01AF0120019C019F01AC01AF01200F3
:1025180093900C0EE82EFED700D093820C0EE82E76
:10252800FED700D00C0EE82EFED700D093800C0EFC
:10253800E82EFED700D0120023C0B0F024C0B1F0BE
:10254800450E196E000E1A6EB0C01BF0B1C01CF01B
:10255800000E1E6E010E1D6EEBEC10F045501200C1
:102568001BEC0BF0B7EC04F000019A5100019B1131
:10257800D8B412000001824B832B000E00019B6F20
:10258800000E9A6F1200F29EDEC033F0DFC034F006
:10259800E0C035F0E1C036F0E2C037F0E3C038F013
:1025A800E4C039F0E5C03AF0F28E120023C0B0F072
:1025B80024C0B1F0B0C019F0B1C01AF025C01BF0AA
:1025C80026C01CF0000E1E6E010E1D6EEBEC10F006
:1025D8001200194A1A2AE80E195C030E1A58D8A0D4
:1025E80005D0000E1A6E000E196E120019C019F0EF
:1025F8001AC01AF0120041C07DF142C07EF1D10E1E
:1026080001017F6F000E0101806F4EEC12F0120085
:102618001B6E1BC019F00F0E19161B380F0B0A0D75
:10262800F35019241A6E1A5012003B0EC66E81928E
:102638008190938293800C0EE82EFED700D0120072
:1026480092682F0E0F015B6FAD0EC06E040EC16E47
:10265800010EC26E120041C019F042C01AF0EDEC32
:1026680012F019C041F01AC042F012004106D8A079
:10267800420642AE1200030E426EE70E416E120091
:102688000001C0510001C111D8B412009DEC07F03F
:1026980012009490000E0101926F010E916F1200CA
:1026A80035EC10F038EC12F00BEC11F0120043C0CE
:1026B80041F044C042F012004AEC09F08FEC0CF0F3
:1026C8001200A8EC10F04AEF00F0016E01C0ADFF57
:1026D800120060EC13F012003C00B400AE5012007F
:020000040020DA
:08000000FFFFFFFFFFFFFFFF00
:020000040030CA
:0E00000000285F3CFFD380FF0FC00FE00F40D1
:00000001FF
