:040000004AEF00F0D3
:100008004782FACF0BF0FBCF0CF0E9CF0DF0EACF27
:100018000EF0E1CF0FF0E2CF10F0D9CF11F0DACF28
:1000280012F0F3CF13F0F4CF14F0F6CF15F0F7CFAA
:1000380016F0F8CF17F0F5CF18F09E926BEC13F08E
:100048000001FF05D8A404D02F04D8B452EC13F053
:1000580018C0F5FF17C0F8FF16C0F7FF15C0F6FF68
:1000680014C0F4FF13C0F3FF12C0DAFF11C0D9FFA8
:1000780010C0E2FF0FC0E1FF0EC0EAFF0DC0E9FFAC
:100088000CC0FBFF0BC0FAFF47921100E0EF0FF026
:1000980031C1A4F00001A56B000E0001AF6F000E86
:1000A800AE6F010132510101846F836B010133513D
:1000B800010183250001966F0101000E01018421D1
:1000C8000001976F2ED3080E0101506F000E010139
:1000D800866F240E856F85C151F1000E266E040EC1
:1000E800256E89EC0FF01200F29E500E196E010E6B
:1000F8001A6EDE0E1B6E000E1C6E000E1E6E020EB9
:100108001D6EE9EC10F0520E196E010E1A6EE00E1B
:100118001B6E000E1C6E000E1E6E020E1D6EE9ECAC
:1001280010F0540E196E010E1A6EE20E1B6E000EC0
:100138001C6E000E1E6E020E1D6EE9EC10F0560EBF
:10014800196E010E1A6EE40E1B6E000E1C6E000E68
:100158001E6E020E1D6EE9EC10F0F28E000E266E79
:100168000A0E256E89EC0FF01200B0EC0AF0500E62
:10017800196E010E1A6EE80E1B6E000E1C6E000E34
:100188001E6E070E1D6EE9EC10F0000E266E090EAD
:10019800256E89EC0FF01200E80E196E000E1A6E2B
:1001A800320E1B6E010E1C6E000E1E6E070E1D6EAB
:1001B800E9EC10F07CEC0BF0000E266E020E256EBA
:1001C80089EC0FF0120034EC0CF0500E196E010E91
:1001D8001A6E410E1B6E000E1C6E000E1E6E020E75
:1001E8001D6EE9EC10F0520E196E010E1A6E430ED8
:1001F8001B6E000E1C6E000E1E6E020E1D6EE9ECCC
:1002080010F0000E266E060E256E89EC0FF0120017
:10021800F9EC06F0500E196E010E1A6E410E1B6EA7
:10022800000E1C6E000E1E6E020E1D6EE9EC10F024
:10023800520E196E010E1A6E430E1B6E000E1C6EC6
:10024800000E1E6E020E1D6EE9EC10F0000E266EFA
:10025800060E256E89EC0FF01200D30E196E000EF3
:100268001A6E320E1B6E010E1C6E000E1E6E060EEE
:100278001D6EE9EC10F047EC06F0500E196E010EF9
:100288001A6ED10E1B6E000E1C6E000E1E6E080E2E
:100298001D6EE9EC10F0580E196E010E1A6EE80E7C
:1002A8001B6E000E1C6E000E1E6E060E1D6EE9EC17
:1002B80010F05E0E196E010E1A6E410E1B6E000EC6
:1002C8001C6E000E1E6E020E1D6EE9EC10F0600E24
:1002D800196E010E1A6E430E1B6E000E1C6E000E78
:1002E8001E6E020E1D6EE9EC10F0000E266E140E46
:1002F800256E89EC0FF01200FDEC12F038EC13F0CB
:100308002DEC13F0FDEC12F0500E196E010E1A6E62
:10031800D10E1B6E000E1C6E000E1E6E080E1D6E9A
:10032800E9EC10F0580E196E010E1A6E410E1B6E94
:10033800000E1C6E000E1E6E020E1D6EE9EC10F013
:100348005A0E196E010E1A6E430E1B6E000E1C6EAD
:10035800000E1E6E020E1D6EE9EC10F0000E266EE9
:100368000E0E256E89EC0FF0120059EC13F0500EAA
:10037800196E010E1A6EEF0E1B6E000E1C6E000E2B
:100388001E6E030E1D6EE9EC10F0530E196E010E71
:100398001A6E410E1B6E000E1C6E000E1E6E020EB3
:1003A8001D6EE9EC10F0550E196E010E1A6E430E13
:1003B8001B6E000E1C6E000E1E6E020E1D6EE9EC0A
:1003C80010F0000E266E090E256E89EC0FF0120053
:1003D8002DEC13F0500E196E010E1A6E410E1B6EA5
:1003E800000E1C6E000E1E6E020E1D6EE9EC10F063
:1003F800520E196E010E1A6E430E1B6E000E1C6E05
:10040800000E1E6E020E1D6EE9EC10F0000E266E38
:10041800060E256E89EC0FF0120038EC13F0500E22
:10042800196E010E1A6E410E1B6E000E1C6E000E28
:100438001E6E020E1D6EE9EC10F0520E196E010EC2
:100448001A6E430E1B6E000E1C6E000E1E6E020E00
:100458001D6EE9EC10F0000E266E060E256E89EC76
:100468000FF01200410E196E000E1A6E320E1B6E3E
:10047800010E1C6E000E1E6E020E1D6EE9EC10F0D1
:10048800500E196E010E1A6E410E1B6E000E1C6E78
:10049800000E1E6E020E1D6EE9EC10F0520E196E63
:1004A800010E1A6E430E1B6E000E1C6E000E1E6EA1
:1004B800020E1D6EE9EC10F0000E266E060E256E7B
:1004C80089EC0FF0120038EC13F0FDEC12F0500E2E
:1004D800196E010E1A6ED10E1B6E000E1C6E000EE8
:1004E8001E6E080E1D6EE9EC10F0580E196E010E06
:1004F8001A6E410E1B6E000E1C6E000E1E6E020E52
:100508001D6EE9EC10F05A0E196E010E1A6E430EAC
:100518001B6E000E1C6E000E1E6E020E1D6EE9ECA8
:1005280010F0000E266E0E0E256E89EC0FF01200EC
:1005380096C029F097C02AF0500E2B6E010E2C6E33
:10054800000E2E6E080E2D6E88EC05F0000E266E3D
:100558000A0E256E89EC0FF0120096C029F097C09C
:100568002AF0340E2B6E010E2C6E000E2E6E010E2C
:100578002D6E39EC08F0000E266E020E256E89EC01
:100588000FF01200000E0001956F000E946F500ED0
:10059800196E010E1A6EE80E1B6E000E1C6E000E10
:1005A8001E6E070E1D6EE9EC10F0000E266E090E89
:1005B800256E89EC0FF01200500E196E010E1A6E9E
:1005C800D10E1B6E000E1C6E000E1E6E080E1D6EE8
:1005D800E9EC10F0580E196E010E1A6EE80E1B6E3B
:1005E800000E1C6E000E1E6E060E1D6EE9EC10F05D
:1005F8005E0E196E010E1A6E410E1B6E000E1C6EF9
:10060800000E1E6E020E1D6EE9EC10F0600E196EE3
:10061800010E1A6E430E1B6E000E1C6E000E1E6E2F
:10062800020E1D6EE9EC10F0000E266E140E256EFB
:1006380089EC0FF01200000E0001956F010E946F07
:10064800000E266E020E256E89EC0FF01200080EC1
:100658000001A027000EA123A0C029F0A1C02AF004
:10066800500E2B6E010E2C6E000E2E6E080E2D6E87
:1006780088EC05F0000E266E0A0E256E89EC0FF048
:100688001200E10E0101506F000E266E030E256E5A
:1006980089EC0FF0000E0001AF6F000EAE6F120074
:1006A800F29E500E196E010E1A6E330E1B6E000E5E
:1006B8001C6E000E1E6E020E1D6EE9EC10F0520E3E
:1006C800196E010E1A6E350E1B6E000E1C6E000E92
:1006D8001E6E020E1D6EE9EC10F0540E196E010E1E
:1006E8001A6E370E1B6E000E1C6E000E1E6E020E6A
:1006F8001D6EE9EC10F0560E196E010E1A6E390EC9
:100708001B6E000E1C6E000E1E6E020E1D6EE9ECB6
:1007180010F0F28E000E266E0A0E256E89EC0FF090
:10072800120098C083F199C084F101018451000A34
:10073800D8A4A7D701018351000AD8B4C4D4010AA8
:10074800D8B4D2D4020AD8B410D5070AD8B424D55C
:10075800010AD8B438D5030AD8B45AD5010AD8B48E
:100768007CD50F0AD8B4C8D5010AD8B4FED5030A77
:10077800D8B42ED6010AD8B450D6070AD8B472D63F
:10078800010AD8B4A0D6030AD8B4D2D6010AD8B47C
:10079800E4D61F0AD8B4F6D6010AD8B40DD7020A8F
:1007A800D8B449D7320AD8B452D7030AD8B478D7BC
:1007B80068D75B0E0101796F0F0E7A6F000E7B6FA1
:1007C800000E7C6FC5EC12F033C019F034C01AF07B
:1007D800000E1ABEFF0E1B6E1C6E79C11DF07AC189
:1007E8001EF07BC11FF07CC120F0B5EC0FF019C0E2
:1007F80025F01AC026F01BC027F01CC028F0E80E10
:10080800296E030E2A6E000E2B6E000E2C6E3EEC27
:100818000AF025C033F026C034F020EE35F0DECFE4
:1008280019F0DDCF1AF0000E1ABEFF0E1B6E1C6EFB
:1008380079C11DF07AC11EF07BC11FF07CC120F088
:10084800B5EC0FF019C025F01AC026F01BC027F030
:100858001CC028F0E80E296E030E2A6E000E2B6EBF
:10086800000E2C6E3EEC0AF025C035F026C036F09E
:1008780020EE37F0DECF19F0DDCF1AF0000E1ABEE9
:10088800FF0E1B6E1C6E79C11DF07AC11EF07BC174
:100898001FF07CC120F0B5EC0FF019C025F01AC08C
:1008A80026F01BC027F01CC028F0E80E296E030EA6
:1008B8002A6E000E2B6E000E2C6E3EEC0AF025C040
:1008C80037F026C038F020EE39F0DECF19F0DDCF52
:1008D8001AF0000E1ABEFF0E1B6E1C6E79C11DF0B9
:1008E8007AC11EF07BC11FF07CC120F0B5EC0FF07F
:1008F80019C025F01AC026F01BC027F01CC028F02C
:10090800E80E296E030E2A6E000E2B6E000E2C6E5A
:100918003EEC0AF025C039F026C03AF034BE07D0C4
:10092800100E345CD8A003D00F0E346E336836BE78
:1009380007D0100E365CD8A003D00F0E366E35687F
:1009480038BE07D0100E385CD8A003D00F0E386E12
:1009580037683ABE1200100E3A5CD8A012000F0E8B
:100968003A6E396812000001945100019511D8B40B
:1009780012000001CE510001CF11D8B41200000EB0
:100988000001CF6F000ECE6F0001924B932B000138
:10099800FB510001925D0001FC5100019359D8B050
:1009A80097D00001FD510001925D0001FE51000148
:1009B8009359D8A01200DDEC03F060C083F161C048
:1009C80084F10101831F841F834B842B3350010161
:1009D8008325196E3450010184211A6E76EC12F0C9
:1009E80000016A51195C1A50800A0101856F0001E3
:1009F8006B51800A01018559D8B06CD020EE62F0A5
:100A0800DECF83F1DDCF84F10101831F841F834B87
:100A1800842B355001018325196E3650010184213C
:100A28001A6E76EC12F000016C51195C1A50800AAB
:100A38000101856F00016D51800A01018559D8B007
:100A480049D020EE64F0DECF83F1DDCF84F10101DF
:100A5800831F841F834B842B375001018325196E14
:100A68003850010184211A6E76EC12F000016E51A3
:100A7800195C1A50800A0101856F00016F51800AC4
:100A880001018559D8B026D020EE66F0DECF83F17B
:100A9800DDCF84F10101831F841F834B842B3950E0
:100AA80001018325196E3A50010184211A6E76ECF2
:100AB80012F000017051195C1A50800A0101856F0B
:100AC80000017151800A01018559D8A0120002D095
:100AD800DDEC03F0DBEC0BF047EC06F0000E000158
:100AE800936F000E926F33C060F034C061F035C070
:100AF80062F036C063F037C064F038C065F039C0C2
:100B080066F03AC067F01200000E00018F6F000E09
:100B18008E6F000E0101796F000E7A6F000E7B6FE9
:100B2800000E7C6F0FD0EDEC11F0000E266EA00EBB
:100B3800256EE6EC0CF0010E01017927000E7A23F0
:100B48007B237C2301017CBF0ED001017C5111E184
:100B5800A00E0101795D860E01017A59010E01018D
:100B68007B59D8B006D000018E5100018F11D8B43E
:100B7800DAD729C0F5F02AC0F6F0F6C0F5F0000182
:100B8800F66B0001F551256E266AE6EC0CF029504B
:100B9800256E266AE6EC0CF0EDEC11F0000E266EE0
:100BA800A10E256EE6EC0CF0000E0101796F000E27
:100BB8007A6F000E7B6F000E7C6F15D001017951A2
:100BC8002B24D96E01017A512C20DA6EB7EC0DF086
:100BD8001950DF6E48EC11F0010E01017927000E63
:100BE8007A237B237C23FF0E2D240001F56FFF0E53
:100BF8002E200001F66F0001F76B0001F6BFF70722
:100C08000001F7510001F86F0001F5510101795D0C
:100C18000001F65101017A590001F75101017B5990
:100C280001017C51800A0001F96F0001F851800A26
:100C38000001F959D8A0C2D7FF0E0001F56FFF0EC9
:100C48000001F66F2DC0F7F02EC0F8F00001F55145
:100C58000001F7270001F6510001F8230001F751C0
:100C68002B24D96E0001F8512C20DA6EB7EC0DF068
:100C78001950DF6EBAEC11F08AEC12F029C0A0F01E
:100C88002AC0A1F01200B0EC0AF0C8EC08F043C08A
:100C980019F044C01AF0EBEC12F019C043F01AC076
:100CA80044F043C019F044C01AF0EBEC12F019C03C
:100CB80081F11AC082F10001EF513D180DE10001E8
:100CC800F0513E1809E10001F1513F1805E100011A
:100CD800F2514018D8B432D0A0EC11F081C17DF1A6
:100CE80082C17EF16C0E01017F6F010E0101806FE0
:100CF80061EC12F097EC0EF043C07DF144C07EF138
:100D08006C0E01017F6F010E0101806F61EC12F022
:100D180081C143F082C144F043C019F044C01AF0C5
:100D2800EBEC12F019C081F11AC082F13DC0EFF06E
:100D38003EC0F0F03FC0F1F040C0F2F04350441024
:100D4800D8A42AD0A0EC11F081C17DF182C17EF136
:100D58006C0E01017F6F010E0101806F61EC12F0D2
:100D680097EC0EF043C07DF144C07EF16C0E01019A
:100D78007F6F010E0101806F61EC12F081C143F0B9
:100D880082C144F043C019F044C01AF0EBEC12F0F1
:100D980019C081F11AC082F1A0EC11F081C17DF176
:100DA80082C17EF16C0E01017F6F010E0101806F1F
:100DB80061EC12F0D10E196E000E1A6EF30E1B6E56
:100DC800000E1C6E000E1E6E020E1D6EE9EC10F079
:100DD80043C07DF144C07EF1D10E01017F6F000E4A
:100DE8000101806F61EC12F0120062EC0EF0000E4F
:100DF8000001EF6F000EF06F000EF16F000EF26F42
:100E08004680000E00019F6F040E9E6F000E426E1A
:100E1800000E416E42BE06D0E80E415C030E4258F9
:100E2800D8B023D0FDEC12F00001D129D8A407D006
:100E3800FF0E4124436EFF0E4220446E16D0FE0E74
:100E48000001D119D8A40ED0EF0E196E000E1A6E3B
:100E5800D20E1B6E000E1C6E000E1E6E030E1D6E53
:100E6800E9EC10F0414A422AD5D741504210D8A4A3
:100E780012D0030E426EE70E416EFDEC12F0000137
:100E8800D129D8A404D0030E446EE60E03D0030E75
:100E9800446EE70E436E42BE19D0E80E415C030E65
:100EA8004258D8A013D0A0EC11F0030E01017E6FB8
:100EB800E70E7D6F6C0E01017F6F010E0101806FDF
:100EC80061EC12F0030E446EE60E436E0001EF5122
:100ED8000001F0110001F1110001F211D8A424D091
:100EE800030E426EE70E416E42BE1ED0FDEC12F0BC
:100EF8000001D129D8B418D0FE0E0001D119D8A408
:100F08000FD0EF0E196E000E1A6ED20E1B6E000E69
:100F18001C6E000E1E6E030E1D6EE9EC10F004D060
:100F28004106D8A04206E0D743C041F044C042F091
:100F3800120031C198F00001996B820E01014E6FC9
:100F480098C04FF10001995105E1800E0001985DAC
:100F5800D8A088D0010132510101886F876B010147
:100F68003351010187250001966F0101000E01012F
:100F780088210001976F64D0000E01018B6F000E6D
:100F88008A6F01018B512BE1080E01018A5DD8B0EF
:100F980026D001018A5100019625236E01018B514B
:100FA80000019721246E9EEC12F00101876F020E5A
:100FB80001018A250101886F000E01018B210101C1
:100FC800896F4E0E01018825D96E010E0101892114
:100FD800DA6E87C1DFFF01018A4B8B2BD2D7000E57
:100FE800266E0A0E256E89EC0FF0000E0001AF6F19
:100FF800000EAE6F120096C023F097C024F0340E96
:10100800256E010E266ED8EC12F0000E266E020E2A
:10101800256E89EC0FF0000E0001AF6F000EAE6F69
:101028001200E00E0101506F000E266E030E256EB1
:1010380089EC0FF0000E0001AF6F000EAE6F1200CA
:1010480098C087F199C088F101018851000AD8A495
:10105800E8D701018751800AD8B48ED7010AD8B4DD
:10106800CAD7DFD74CEC00F01200000E00018F6FDA
:10107800000E8E6F000E0101796F000E7A6F000E60
:101088007B6F000E7C6F0FD0EDEC11F0000E266E1A
:10109800A00E256EE6EC0CF0010E01017927000E7A
:1010A8007A237B237C2301017CBF0ED001017C5174
:1010B80011E1A00E0101795D860E01017A59010E38
:1010C80001017B59D8B006D000018E5100018F1163
:1010D800D8B4DAD729C0F5F02AC0F6F0F6C0F5F092
:1010E8000001F66B0001F551256E266AE6EC0CF05E
:1010F8002950256E266AE6EC0CF0000E0101796F86
:10110800000E7A6F000E7B6F000E7C6F18D0010105
:1011180079512B24D96E01017A512C20DA6EDF50D7
:101128000001F56F0001F551256E266AE6EC0CF01A
:10113800010E01017927000E7A237B237C232DC021
:10114800F5F02EC0F6F0000E0001F6BFFF0EF76FA7
:10115800F86F0001F5510101795D0001F6510101B7
:101168007A590001F75101017B5901017C51800A2C
:101178000001F96F0001F851800A0001F959D8A05F
:10118800C6D78AEC12F01200EBC019F01F0E191620
:1011980019500001F36FF46B0001F4510AE10C0ED1
:1011A8000001F35DD8B005D0000E266E000E256E46
:1011B80009D0000E266E010E256E0C0E0001F35F9D
:1011C800000EF45B0001E8513D6E3E6A3F6A406ADA
:1011D8000001E9513DC01AF03EC01BF03FC01CF0B1
:1011E800196A19243D6E000E1A203E6E000E1B204F
:1011F8003F6E000E1C20406ED8900001EA35196E33
:101208001A6A1A361B6A1ABE1B061B501C6E3DC092
:101218001EF03EC01FF03FC020F01D6A19501D246B
:10122800216E1A501E20226E1B501F20236E1C5048
:101238002020246E255021243D6E265022203E6E0B
:10124800000E23203F6E000E2420406EF3C019F0DC
:10125800F4C01AF0060ED89019361A36E82EFBD7C5
:101268000001EC511926000E1A22060ED8901936E4
:101278001A36E82EFBD70001ED5119240001F36F4F
:101288000001000E1A200001F46F12009EAA12003D
:1012980070EC13F0316E0001AE510001AF11D8A40B
:1012A80012000001AC2913E10001AD29D8A40FD028
:1012B800FE0E3118D8A41200000E0001AD6F000E0A
:1012C800AC6F000E0001AB6F000EAA6F1200312840
:1012D800D8B443D0FE0E3118D8A40BD0000E0001AC
:1012E800AD6F000EAC6F000E0001AB6F000EAA6F61
:1012F8001200FA0E3118D8A406D0000E0001AB6F08
:10130800010EAA6F12000001AA510001AB11D8B456
:1013180007D0FA0E3126000E0001AB6F000EAA6F3F
:101328000001ADBF0CD00001AD5105E11E0E00015A
:10133800AC5DD8A004D00001AC69AD691200300ED4
:101348000001AC25D96E010E0001AD21DA6E31C065
:10135800DFFF0001AC4BAD2B1200020E010130196A
:10136800D8A41200FF0E0001AC250001A86FFF0EE3
:101378000001AD210001A96F000E0001AF6F010E41
:10138800AE6F120092682F0E0F015B6F000E000106
:101398006B6F030E6A6F000E00016D6F030E6C6FAA
:1013A800000E00016F6F030E6E6F000E0001716F6B
:1013B800030E706F000E0001736F030E726F000E44
:1013C8000101156F010E146F000E0101176F010E58
:1013D800166F000E0101196F010E186F000E010142
:1013E8001B6F010E1A6F000E01011D6F010E1C6F9D
:1013F800000E0001756F000E746F000E0001776F0C
:10140800000E766F000E0001796F000E786F000EE7
:1014180000017B6F000E7A6F000E00017D6F000ED9
:101428007C6F000E0001D16F000E0001D26F000E1C
:101438000001D36F000E0001D46F000E0001D56FBC
:10144800000E0001616F6069000E0001636F626940
:10145800000E0001656F6469000E0001676F666920
:10146800000E0001696F6869000E0001956F010E9A
:10147800946F1200000E0001F66F2CAE0BD02C1EDC
:101488002B1E2A1E296C000E2A222B222C22010E2A
:101498000001F66F28AE0BD0281E271E261E256CCD
:1014A800000E262227222822010E0001F61B000E1C
:1014B8000001F76F000EF86F000EF96F000EFA6F5B
:1014C80029502A102B102C10D8B42FD0010E00014F
:1014D800F56F07D0D89029362A362B362C360001DE
:1014E800F52B2CAEF7D70001D890F737F837F93736
:1014F800FA372950255C2A5026582B5027582C504B
:101508002858D8A00AD02950255E2A50265A2B5090
:10151800275A2C50285A0001F781D8902C322B32A8
:101528002A3229320001F52FDED70001F6510001D9
:10153800D8B409D00001FA1FF91FF81FF76D000E83
:10154800F823F923FA23F7C025F0F8C026F0F9C0EC
:1015580027F0FAC028F01200EDEC11F0000E266E0C
:10156800D00E256EE6EC0CF0000E266E000E256EF1
:10157800E6EC0CF0EDEC11F0000E266ED10E256EA7
:10158800E6EC0CF0B7EC0DF01950296E29BE06D028
:1015980029500AEC13F00001ED6F02D029C0EDF0DC
:1015A80048EC11F0B7EC0DF01950296E29500AECEF
:1015B80013F00001EC6F48EC11F0B7EC0DF0195086
:1015C800296E29500AEC13F00001EB6F48EC11F07A
:1015D800B7EC0DF01950296E29500AEC13F00001F0
:1015E800EE6F48EC11F0B7EC0DF01950296E295048
:1015F8000AEC13F00001EA6F48EC11F0B7EC0DF0BB
:101608001950296E29500AEC13F00001E96F48ECD3
:1016180011F0B7EC0DF01950296E29500AEC13F0AF
:101628000001E86FBAEC11F08AEC12F01200000128
:10163800BC510001BD11D8B41200B0EC0AF0000191
:10164800ED512A6E2B6A0001CC512A1805E10001E0
:10165800CD512B18D8B41200000E0001CF6F010E27
:10166800CE6FEDC0CCF00001CD6B0001EC512A6EBD
:101678002B6A0001CA512A1805E10001CB512B1829
:10168800D8B41200000E0001C36F010EC26FECC087
:10169800CAF00001CB6B0001EB512A6E2B6A0001E6
:1016A800C8512A1805E10001C9512B18D8B41200F5
:1016B800000E0001C16F010EC06FEBC0C8F0000141
:1016C800C96B0001EA512A6E2B6A0001C6512A181B
:1016D80005E10001C7512B18D8B41200000E000113
:1016E800BF6F010EBE6FEAC0C6F00001C76B1200E3
:1016F800EDEC11F0000E266ED00E256EE6EC0CF027
:10170800000E266E000E256EE6EC0CF00001ED5181
:1017180083EC11F0296E7F0E29162950256E266A52
:10172800E6EC0CF00001EC5183EC11F0296E295025
:10173800256E266AE6EC0CF00001EB5183EC11F003
:10174800296E2950256E266AE6EC0CF00001EE5150
:1017580083EC11F0296E2950256E266AE6EC0CF010
:101768000001EA5183EC11F0296E2950256E266A92
:10177800E6EC0CF00001E95183EC11F0296E2950D8
:10178800256E266AE6EC0CF00001E85183EC11F0B6
:10179800296E2950256E266AE6EC0CF0000E266E9E
:1017A800000E256EE6EC0CF08AEC12F0120033C045
:1017B80019F034C01AF0040E1B6E1A341A3219329A
:1017C8001B2EFBD719500001D36F20EE35F0DECF6A
:1017D80019F0DDCF1AF0040E1B6E1A341A321932C2
:1017E8001B2EFBD719500001D46F20EE37F0DECF47
:1017F80019F0DDCF1AF0040E1B6E1A341A321932A2
:101808001B2EFBD719500001D56F20EE39F0DECF23
:1018180019F0DDCF1AF0040E1B6E1A341A32193281
:101828001B2EFBD719500001D66F35C019F00F0ECB
:10183800191633C01AF00F0E1A161A38F00B19249D
:101848000001D76F39C019F00F0E191637C01AF0FA
:101858000F0E1A161A38F00B19240001D86F12004F
:1018680062EC0EF04680000E00019F6F040E9E6F22
:10187800A0EC11F0030E01017E6FE70E7D6F6C0E78
:1018880001017F6F010E0101806F61EC12F0000E03
:1018980001017E6F010E7D6F6C0E01017F6F010EDD
:1018A8000101806F61EC12F0000E3D6E000E3E6E7D
:1018B800000E3F6E000E406EB0EC0AF0C8EC08F067
:1018C800000E0001EF6F000EF06F000EF16F000EBA
:1018D800F26F97EC0EF0000E01017E6F000E7D6F27
:1018E8006C0E01017F6F010E0101806F61EC12F037
:1018F8003DC0EFF03EC0F0F03FC0F1F040C0F2F064
:10190800000E446E000E436E000E426E000E416ED5
:1019180012000001B8510001B911D8B412009EA8F4
:1019280012000001B5AF07D0FE0E67EC13F00001FE
:10193800B44BB52B12000001B4510001B05D000199
:10194800B151800A026E0001B551800A0258D8A030
:1019580030D04E0E0001B425D96E010E0001B5211C
:10196800DA6EDF50326EF90E32641CD00001B251CB
:101978000001B311D8A409D0FA0E67EC13F0000ED9
:101988000001B36F010EB26F12003250060F67EC00
:1019980013F0000E0001B36F000EB26F0001B44BDC
:1019A800B52B1200325067EC13F00001B44BB52B85
:1019B8001200FF0E67EC13F0000E0001B96F000E65
:1019C800B86F12009392000E286E010E276E28BE83
:1019D80006D0285027E1090E275CD8B023D025BEB1
:1019E80002D0939001D09380D8902534256E263468
:1019F800266E0C0EE82EFED700D093820C0EE82E31
:101A0800FED700D00C0EE82EFED700D093920C0E15
:101A1800E82EFED700D0274A282A28BEE0D728502B
:101A280001E1D9D793800C0EE82EFED700D093821F
:101A38000C0EE82EFED700D081B005D0000E0001B4
:101A48008F6F010E04D0000E00018F6F000E8E6F95
:101A58000C0EE82EFED700D093920C0EE82EFED77F
:101A680000D01200000E1E6E1CAE06D01B6C1C1E91
:101A7800D8B01C2A010E1E6E1AAE06D0196C1A1E9A
:101A8800D8B01A2A010E1E1A000E206E000E1F6E04
:101A98001B501C10D8B41CD0010E1D6E04D0D89059
:101AA8001B361C361D2A1CAEFAD7D8901F36203696
:101AB8001B50195C1C501A58D8A005D01B50195E31
:101AC8001C501A5A1F80D8901C321B321D2EEDD77D
:101AD8001E50D8B404D01F6C201ED8B0202A1FC0B6
:101AE80019F020C01AF0120020C019F021C01AF015
:101AF8009EC01BF09FC01CF00AEC10F019C09AF0B1
:101B08001AC09BF020C019F021C01AF09EC01BF02B
:101B18009FC01CF0C8EC10F019C09CF01AC09DF0D2
:101B28009CC022F09DC023F0D89022362336D8904E
:101B380022362336D890223623369AC024F09BC00A
:101B480025F0050ED89024362536E82EFBD72250EE
:101B580024262350252224C07EF025C07FF00001D2
:101B6800806B816B1200939293800C0EE82EFED747
:101B780000D0000E1E6E000E1D6E000E1C6E010EB3
:101B88001B6E1CBE06D01C5022E1090E1B5CD8B08F
:101B98001ED0D8901D341D6E1E341E6E93820C0EFE
:101BA800E82EFED700D00C0EE82EFED700D081A07C
:101BB80002D01D4A1E2A93920C0EE82EFED700D0A2
:101BC8001B4A1C2A1CBEE5D71C5001E1DED79380B6
:101BD8000C0EE82EFED700D01DC019F01EC01AF05A
:101BE8001200000E1E6E1AAE06D0196C1A1ED8B05E
:101BF8001A2A010E1E6E1CAE04D01B6C1C1ED8B017
:101C08001C2A1B501C10D8B418D0010E1D6E04D00D
:101C1800D8901B361C361D2A1CAEFAD71B50195CEF
:101C28001C501A58D8A004D01B50195E1C501A5AC0
:101C3800D8901C321B321D2EF1D71E50D8B404D0B8
:101C4800196C1A1ED8B01A2A19C019F01AC01AF03D
:101C58001200000E1A6E640E196ED4EC11F0020E0A
:101C680001014E6F680E01014F6F700E0101506F38
:101C78006A0E0101516F6E0E0101526F000E266E41
:101C8800030E256E89EC0FF0050E1A6EDC0E196E28
:101C9800D4EC11F0CCEC0EF022EC13F017EC13F0AE
:101CA80029EC11F062EC0EF0F9EC06F0C6EC09F044
:101CB800000E0001BB6F000EBA6F12004690000EB6
:101CC8000001EF6F000EF06F000EF16F000EF26F63
:101CD800000E1A6E000E196E1A5017E1080E195CE4
:101CE800D8B013D0D10E1924D96E000E1A20DA6E8E
:101CF800000EDF6E6C0E1924D96E010E1A20DA6EF2
:101D0800010EDF6E194A1A2AE7D7000E00019F6FED
:101D1800040E9E6F000E446E000E436E000E426E5F
:101D2800000E416E1200000E246E010E236E245028
:101D38000FE1080E235CD8B00BD06C0E2324D96EAB
:101D4800010E2420DA6EF10EDF6E234A242AEFD723
:101D5800FE0E01016C6F6D0E196E010E1A6E3D0EAE
:101D68001B6E000E1C6E000E1E6E030E1D6EE9EC3F
:101D780010F0700E196E010E1A6EEF0E1B6E000E2B
:101D88001C6E000E1E6E030E1D6EE9EC10F01200A4
:101D9800000E0001C56F000EC46F000E0001BD6F7C
:101DA800000EBC6F000E0001CF6F000ECE6F000E4C
:101DB8000001C36F000EC26F000E0001C16F000E5C
:101DC800C06F000E0001BF6F000EBE6FB0EC0AF0CE
:101DD800EDC0CCF00001CD6BECC0CAF00001CB6BBC
:101DE800EBC0C8F00001C96BEAC0C6F00001C76BC0
:101DF8001200000E206E000E1F6E000E226E000EE6
:101E0800216E17D021501B24D96E22501C20DA6E67
:101E1800DF501D6E1D50236E246A23AE02D0234A64
:101E2800242A23501F241F6E24502020206E214A6C
:101E3800222A1950215C2250800A1D6E1A50800AED
:101E48001D58D8A0DFD71F5000087F0B1E6E1E50EC
:101E58001200F29E8290030E1A6EE80E196ED4ECF0
:101E680011F0000E226E010E216E10D08280010E3C
:101E78001A6E900E196ED4EC11F08290010E1A6E43
:101E8800900E196ED4EC11F0214A222A21501E5CC2
:101E98001F50800A206E2250800A2058D8B0E6D7FA
:101EA800010E1A6EF40E196ED4EC11F0DAD7F29E08
:101EB8008290030E026EE80E016E06EC12F0000E20
:101EC8000A6E010E096E10D08280010E026E900E0D
:101ED800016E06EC12F08290010E026E900E016EF9
:101EE80006EC12F0094A0A2A0950065C0750800AD3
:101EF800086E0A50800A0858D8B0E6D7010E026E5C
:101F0800F40E016E06EC12F0DAD70001B8510001A8
:101F1800B911D8A4120025C028F026C029F025C080
:101F280019F026C01AF04E0E1B6E010E1C6EFDEC49
:101F38000EF0276E4E0E2824D96E010E2920DA6E77
:101F480027C0DFFFFF0E0001B56FFE0EB46F25C07E
:101F5800B0F026C0B1F0000E0001B96F010EB86FE5
:101F68001200000E216E000E226E000E236E000E6F
:101F7800246E19A008D01D5021261E5022221F5061
:101F8800232220502422D8901D361E361F36203694
:101F9800D8901C321B321A32193219501A101B10E1
:101FA8001C10D8A4E6D721C019F022C01AF023C00B
:101FB8001BF024C01CF01200DC0EF66E260EF76E25
:101FC800000EF86E00EEFBF010EE04F00900F5CFFD
:101FD800EEFFE550E150FAE101EE00F0790EEE6A0D
:101FE800E806FDE100EE60F0950EEE6AE806FDE118
:101FF800466A00EE2FF0170EEE6AE806FDE14790FC
:102008004792000EF86E000163EF13F0000E1F6E8A
:10201800000E1E6E1B501C10D8B41CD0010E1D6E75
:1020280004D0D8901B361C361D2A1CAEFAD7D8907F
:102038001E361F361B50195C1C501A58D8A005D0E4
:102048001B50195E1C501A5A1E80D8901C321B3225
:102058001D2EEDD71EC019F01FC01AF01200000E79
:10206800026E000E016E5CEC10F001C0DEF002C0E2
:10207800DFF0000E026E010E016E5CEC10F001C084
:10208800E0F002C0E1F0000E026E020E016E5CECA0
:1020980010F001C0E2F002C0E3F0000E026E040E80
:1020A800016E5CEC10F001C0E4F002C0E5F0120033
:1020B80001C003F0D8900336D89003360328C26EC7
:1020C80000D000D000D0C282000E066E000E056E51
:1020D80006BE06D0065009E13D0E055CD8B005D015
:1020E800C2A203D0054A062AF3D7C450046E036A75
:1020F800C3500324016E000E0420026E1200000E6D
:10210800816E000E936E000E0F015B6F000E0F01C3
:102118005C6F000E0F015D6F620ED36E7C0EBB6E9E
:10212800060EBA6E9D82C00EF26E4BEC13F0800E56
:102138001D6E250E1E6E000E1F6E000E206E66ECC4
:1021480011F01200010E0001FF6F000E2F6E83ECDC
:1021580010F00001FF05D8A407D02F50D8A404D050
:102168002DEC0EF0010E2F6E42EC13F00001FF056E
:10217800D8A4FAD72F50D8A404D02DEC0EF0010E15
:102188002F6EB2EC12F0F0D71B501C10D8B418D038
:10219800010E1D6E04D0D8901B361C361D2A1CAEAD
:1021A800FAD71B50195C1C501A58D8A004D01B50E1
:1021B800195E1C501A5AD8901C321B321D2EF1D7AA
:1021C80019C019F01AC01AF012001BC021F01CC067
:1021D80022F019C01FF01AC020F00ED021C0D9FF7C
:1021E80022C0DAFF1FC0E1FF20C0E2FFDFCFE7FF18
:1021F800214A222A1F4A202A1D06D8A01E061D2869
:10220800EDE11E28D8B41200E9D701019107D8A042
:102218009207010192BF08D00101925115E1020E07
:102228000101915DD8B0120082A007D08290000E03
:102238000101926F640E916F12008280000E0101FD
:10224800926F640E916F12001200B0EC0AF0B0ECBD
:102258000AF00001EDAF12000B0E0001E86F050E49
:102268000001E96F0A0E0001EA6F010E0001EB6F31
:10227800020E0001EC6F030E0001ED6F010E00016C
:10228800EE6F7CEC0BF0120093920C0EE82EFED74A
:1022980000D093900C0EE82EFED700D093820C0E3F
:1022A800E82EFED700D00C0EE82EFED700D0939271
:1022B8000C0EE82EFED700D093800C0EE82EFED729
:1022C80000D012001DC019F01EC01AF01FC01BF06C
:1022D80020C01CF01FEC12F0000E0001AB6F000EC6
:1022E800AA6F000E0001B36F000EB26F000E00015E
:1022F800AF6F000EAE6F0001AC69AD691200246EBD
:1023080024C019F01A6A000E1C6E0A0E1B6EF5EC3A
:102318000DF019C021F01AC022F024C019F01A6A71
:10232800000E1C6E0A0E1B6E36EC0DF01938F00B01
:102338002124236E23501200000E1A6E010E196E0E
:102348001A5011E1080E195CD8B00DD06C0E192482
:10235800D96E010E1A20DA6EF00EDF6E194A1A2AAB
:102368001A5001E1EFD701016C69120093920C0E2B
:10237800E82EFED700D093800C0EE82EFED700D0B2
:1023880093820C0EE82EFED700D00C0EE82EFED756
:1023980000D093920C0EE82EFED700D09380120046
:1023A800000E1D6E010E1C6E09D0030E1B6E980EDA
:1023B800E82EFED71B2EFCD71C4A1D2A1C50195C80
:1023C8001A50800A1B6E1D50800A1B58D8A0120094
:1023D800ECD7938093820C0EE82EFED700D00C0E1B
:1023E800E82EFED700D093900C0EE82EFED700D032
:1023F8000C0EE82EFED700D093920C0EE82EFED7D6
:1024080000D01200000E056E010E046E09D0030EF6
:10241800036E980EE82EFED7032EFCD7044A052A31
:102428000450015C0250800A036E0550800A03586C
:10243800D8A01200ECD7CF0EAF6E000EB06EC20E51
:102448001A1807E11B0419101C10D8A402D0100E8A
:10245800AF6E0A0EB86E900EAB6E240EAC6E9E9ADE
:102468009E8812000001C44BC52B0001C55105E12F
:10247800320E0001C45DD8A01200000E0001C56F25
:10248800000EC46F000E0001BD6F010EBC6F12007C
:102498007DC120F07EC121F078EC0DF07EC029F0DE
:1024A8007FC02AF07FC12BF080C12CF0000E2E6E69
:1024B800080E2D6E88EC05F012007DC120F07EC15B
:1024C80021F078EC0DF07EC029F07FC02AF07FC1A2
:1024D8002BF080C12CF0000E2E6E080E2D6E39ECFC
:1024E80008F012001AAE0DD019C01BF01AC01CF06B
:1024F8001B1E1C1E1B4A1C2A1BC019F01CC01AF0EC
:10250800120019C019F01AC01AF0120093900C0E9C
:10251800E82EFED700D093820C0EE82EFED700D00E
:102528000C0EE82EFED700D093800C0EE82EFED7B6
:1025380000D0120023C0A6F024C0A7F0450E196EE3
:10254800000E1A6EA6C01BF0A7C01CF0000E1E6E6F
:10255800010E1D6EE9EC10F0455012001BEC0BF05B
:10256800B7EC04F00001CE510001CF11D8B412002D
:102578000001BA4BBB2B000E0001CF6F000ECE6FCF
:102588001200F29EDEC033F0DFC034F0E0C035F058
:10259800E1C036F0E2C037F0E3C038F0E4C039F00B
:1025A800E5C03AF0F28E120023C0A6F024C0A7F0CE
:1025B800A6C019F0A7C01AF025C01BF026C01CF051
:1025C800000E1E6E010E1D6EE9EC10F01200194A85
:1025D8001A2AE80E195C030E1A58D8A005D0000E66
:1025E8001A6E000E196E120019C019F01AC01AF0EE
:1025F800120041C07DF142C07EF1D10E01017F6F12
:10260800000E0101806F4CEC12F012001B6E1BC013
:1026180019F00F0E19161B380F0B0A0DF350192459
:102628001A6E1A5012003B0EC66E819281909382E8
:1026380093800C0EE82EFED700D0120092682F0E61
:102648000F015B6FAD0EC06E040EC16E010EC26E3F
:10265800120041C019F042C01AF0EBEC12F019C098
:1026680041F01AC042F012004106D8A0420642AE1C
:102678001200030E426EE70E416E12000001AE51C9
:102688000001AF11D8B412009DEC07F0120094902D
:10269800000E0101926F010E916F120033EC10F0E1
:1026A80036EC12F009EC11F0120043C041F044C0BE
:1026B80042F012004AEC09F08DEC0CF01200A6EC86
:1026C80010F04AEF00F0016E01C0ADFF12005EECA1
:0C26D80013F01200B4003C00AE501200E1
:020000040020DA
:08000000FFFFFFFFFFFFFFFF00
:020000040030CA
:0E00000000285F3CFFD380FF0FC00FE00F40D1
:00000001FF
